:020000022000DC
:1060000000000120F9620200216302002363020004
:1060100025630200276302002963020000000000DC
:106020000000000000000000000000002B630200E0
:106030002D630200000000002F63020031630200A4
:10604000019C020033630200FDA3020079A4020058
:106050003363020033630200B99F0200397A020001
:1060600085810200DD810200336302003363020098
:1060700033630200336302003363020033630200C0
:10608000336302005187020033630200336302006E
:106090003363020033630200E9D502003363020078
:1060A0003363020033630200336302003363020090
:1060B00033630200336302000000000000000000B0
:1060C0003363020033630200336302003363020070
:1060D000F583020033630200336302000000000016
:1060E00000000000000000000000000000000000B0
:1060F00000000000000000000000000000000000A0
:10610000000000000000000000000000000000008F
:10611000000000000000000000000000000000007F
:10612000000000000000000000000000000000006F
:10613000000000000000000000000000000000005F
:10614000000000000000000000000000000000004F
:10615000000000000000000000000000000000003F
:10616000000000000000000000000000000000002F
:10617000000000000000000000000000000000001F
:10618000000000000000000000000000000000000F
:1061900000000000000000000000000000000000FF
:1061A00000000000000000000000000000000000EF
:1061B00000000000000000000000000000000000DF
:1061C00000000000000000000000000000000000CF
:1061D00000000000000000000000000000000000BF
:1061E00000000000000000000000000000000000AF
:1061F000000000000000000000000000000000009F
:106200000348044B834202D0034B03B11847704745
:10621000A02B0020A02B002000000000054806490C
:106220000B1AD90F01EBA301491002D0034B03B1A4
:1062300018477047A02B0020A02B00200000000072
:1062400010B5064C237843B9FFF7DAFF044B13B1BE
:106250000448AFF300800123237010BDA02B002061
:1062600000000000FCF0020008B5044B1BB104491B
:106270000448AFF30080BDE80840CFE7000000000D
:10628000A42B0020FCF00200A3F5803A704700BF69
:10629000154B002B08BF114B9D46FFF7F5FF002162
:1062A0008B460F461148124A121A07F033FC0C4B6A
:1062B000002B00D098470B4B002B00D098470020B4
:1062C000002104000D000B4807F032FB07F064FBCF
:1062D0002000290005F0ACF907F030FB00000800B1
:1062E000000000000000000000000120A02B0020A2
:1062F000E43C002065D902000649074A074B9B1A77
:1063000003DD043BC858D050FBDC03F0EBF8FFF78B
:10631000BFFF00002CF20200D82A0020A02B002092
:10632000FEE7FEE7FEE7FEE7FEE7FEE7FEE7FEE745
:10633000FEE7FEE7704700BF00B583B0044B009353
:10634000044A402300F036F803B05DF804FB00BFB8
:1063500059630200C02B002002B32DE9F843114B12
:10636000114E8846144643F00109032700252246B2
:1063700008EB0501002005F05DFE03461D444FF4C7
:106380007A40E41A23B9337833B1C847013F06D0C5
:1063900001233370002CEAD1BDE8F88370473770D1
:1063A000BDE8F883B0E10200BC2B0020704700BFBD
:1063B00005F01EBFF0B595B000241D460E460846F8
:1063C000174602F03DFF304623460822099505A9ED
:1063D0001A9D08970D950A948DF82C400C9402F0A4
:1063E00093FF9DF814308DF81140DDE9061003F09D
:1063F0000302012ACDE9020128D0022A04D0304646
:1064000002F022FF15B0F0BDBDF81650C3F3C20371
:106410008DF81030C5F389150827082D2C4628BFA4
:1064200008243B4622460EA9304602F06DFF2D1B84
:10643000214608AB02AA0EA8274400F011FE002D49
:10644000EBD1304602F000FF15B0F0BDBDF814707E
:10645000059DC7F38312C3F3C2040EA93046920010
:1064600008238DF81040C7F3831702F04DFFC5F3E2
:10647000952508AB3A4628460EA9009302AB00F0DA
:1064800077FD304602F0E0FE15B0F0BD08B5FFF72D
:106490008FFF0448042100F0E9FC034B01225A71EC
:1064A00008BD00BF14F20200D82A0020064B07489E
:1064B00010B501221A7002F077FE044610B90448A4
:1064C00002F098FF204610BDD02C002060F10200A1
:1064D000ECE1020099B10E4B0E495B1ADB0815D0B6
:1064E00030B400220C4D02E0013293420BD035F85B
:1064F00022408442F8D151F8320030BC704705493F
:1065000051F830007047002030BC70471846704783
:1065100014F2020074F10200A02B0020094B013993
:1065200003EBC00003290BD8DFE801F004020806E2
:106530000420704702207047407970470079704707
:106540000020704774F102002DE9F0438C4CD4E92F
:1065500001239A4285B060D00023C4F81834BFF3F9
:106560004F8FA568EAB2D31C04EB830114F82330E3
:10657000580718D566680B7803F00303012B42D047
:10658000022B03D14B88023505EB9315EAB2D4F800
:106590001804D31C04EB830128B9AE4239D914F88E
:1065A00023305B07E7D404EB82026B1CD2680192B4
:1065B000DBB204EB830302F00302DB680293022ADE
:1065C00005F102062DD0012A00F08D80D4F8105478
:1065D0003DB12B6828469B689847EB681D68002DE5
:1065E000F7D16848684B6949C01AC008000440F0F8
:1065F000020000F0D1F8D4E90130C01A18BF012020
:1066000005B0BDE8F0830B880235C3F383131D4446
:10661000BCE7A66005B0BDE8F083002005B0BDE88A
:10662000F083BDF806305A48C3F389184546502D0B
:1066300028BF502565F38F1305F10801ADF806302A
:1066400002F0B4FD07460028C0D002F0F9FD002397
:1066500001A90822384602F023FEF343DBB20133DE
:10666000B5EB830F4FEA8309F1B277D9A5EB0905A2
:10667000033104EB810108234A463846EDB202F0AB
:106680000FFE44492A4609F10803384602F008FE85
:1066900008F1030806EB9806D4F81834002B6AD1E9
:1066A000D4F8105465B1EB685A7928463946002A67
:1066B0005DD02B681B689847EB681D68002DF2D1F0
:1066C000384602F0C1FD00230DF103008DF80330C0
:1066D00001F0B0FDD4F8183403B9A6609DF80300AA
:1066E00001F0CEFD87E7BDF804302948C3F38312DB
:1066F000062A28BF0622911C62F389138900ADF88F
:10670000043002F053FD074600283FF45FAF02F06B
:1067100097FD0023082201A9384602F0C1FDBDF80B
:10672000043013F4707FB7D06FF00108A8EB0508B0
:106730000825F1B203312B46042204EB81013846CF
:1067400002F0AEFDBDF80420013608EB0603C2F3EB
:1067500083129A4205F10405EBD89DE703312A46DE
:1067600004EB81010823384602F09AFD90E71D688A
:10677000002D98D1A4E7384602F066FD3BE700BF44
:10678000D02C0020BCF1020074F10200D4E1020020
:1067900060F10200DC2C00202DE9F04F5E4C87B048
:1067A000002306460DF10B008DF80B300F4601F06B
:1067B00041FDD4E9015303F580735B1B012B7DD8A8
:1067C00004F21C4804F5836A04F214491AE0BDF887
:1067D0000E30C3F389130333090C0BEB930B4846BC
:1067E000019102F0C9F80199002839D04046C4F857
:1067F00008B002F095F8D4E9013202F58072D21A9D
:10680000012A5CD80121404602F08AF8504602F085
:10681000A3F8484602F0A0F8A368DAB2D11C04EB52
:10682000810014F8211001F0040C490728D404EB6E
:106830008202591CD2680392C9B204EB810102F0B2
:106840000302012AC96803F1020B30D0022ABED02C
:1068500000214846019102F08FF801990028C5D126
:106860004046C6E743880EEB9313DAB2D11C04EB23
:10687000810014F8211001F0040CBCF1000FD6D0F7
:10688000017801F0030101290BD0022903F1020E66
:1068900002F10301E6D004EB8100BCF1000FEFD15F
:1068A000C5E702880233C2F383121344DDE7BDF863
:1068B0000C30C3F38313090C9B4490E72B46DAB2E8
:1068C0000332023305219DF80B0044F82210636067
:1068D00001F0D6FC0021114801F0F8FF80F3100010
:1068E000F1006B1C01F03801DBB2EDB204EB830365
:1068F00041F001010004033540EA164641EA8727CA
:10690000DE6044F8257023781BB1FFF71DFE0028D8
:10691000FBD107B0BDE8F08FD02C0020EC30002078
:106920002DE9F04F634C87B0002306460DF10B00B4
:106930008DF80B300F46904601F07CFCD4E90153F2
:1069400003F580735B1B022B7FD804F21C4904F50E
:10695000836B04F2144A1BE0BDF80E20C2F38912C7
:106960000332090C03EB92035046CDE9003102F0EB
:1069700003F8019900283AD0009BA360484601F033
:10698000CFFFD4E9013202F58072D21A022A5DD813
:106990000121484601F0C4FF584601F0DDFF504692
:1069A00001F0DAFFA368DAB2D11C04EB810014F81D
:1069B000211001F0040C490729D404EB8202591C70
:1069C000D2680392C9B204EB810102F00302012AEA
:1069D000C96803F1020331D0022ABDD0002150461C
:1069E000CDE9003101F0C8FF01990028C4D1484623
:1069F000C5E743880EEB9313DAB2D11C04EB810098
:106A000014F8211001F0040CBCF1000FD5D001786E
:106A100001F0030101290BD0022903F1020E02F15A
:106A20000301E6D004EB8100BCF1000FEFD1C4E715
:106A300002880233C2F383121344DDE7BDF80C2051
:106A4000C2F38312090C13448EE72B46DAB20332E9
:106A5000033345219DF80B0044F82210636001F0D8
:106A60000FFCAB1CDBB204EB830300211248C3F81C
:106A70000C8001F02BFF80F31000F1006B1C01F083
:106A80003801DBB2EDB204EB830341F041010004B5
:106A9000033540EA164641EA8727DE6044F8257050
:106AA00023781BB1FFF750FD0028FBD107B0BDE8EC
:106AB000F08F00BFD02C0020EC3000202DE9F04FEB
:106AC000684C89B0002506460DF113001F468DF86D
:106AD00013508846039201F0ADFBD4E9015303F54E
:106AE00080735B1B032B00F2828004F21C4904F5C7
:106AF000836B04F2144A1BE0BDF81620C2F389121E
:106B00000332090C03EB92035046CDE9013101F049
:106B100033FF029900283BD0019BA360484601F057
:106B2000FFFED4E9013202F58072D21A032A5FD83F
:106B30000121484601F0F4FE584601F00DFF504691
:106B400001F00AFFA368DAB2D11C04EB810014F84B
:106B500021C01CF0040F0CF0040128D104EB8202C8
:106B6000591CD2680592C9B204EB810102F00302FC
:106B7000012AC96803F1020332D0022ABCD00021E5
:106B80005046CDE9013101F0F7FE02990028C3D14A
:106B90004846C4E743880EEB9313DAB2D11C04EBEA
:106BA000810014F8211001F004010029D6D090F8DA
:106BB00000C00CF0030CBCF1010F0BD0BCF1020FB4
:106BC00003F1020E02F1030CE4D004EB8C00002967
:106BD000EDD1C3E702880233C2F383121344DCE72A
:106BE000BDF81420C2F38312090C13448CE72B4622
:106BF000DAB20332043385219DF8130044F82210E1
:106C0000636001F03DFBAA1CEB1CDBB2D2B204EBCB
:106C1000830C04EB8202039B1348D3600021CCF861
:106C20000C7001F053FE80F31000F1006B1C01F0BA
:106C30003801DBB2EDB204EB830341F081010004C3
:106C4000033540EA164641EA8821DE6044F8251003
:106C500023781BB1FFF778FC0028FBD109B0BDE811
:106C6000F08F00BFD02C0020EC3000202DE9F04F39
:106C70008FB01E46CDE908261746199A0B92794C1B
:106C80001A9A189D0C9200231B9A0A9580460DF1C2
:106C900013008DF8133003910D9201F0CBFAD4E973
:106CA000015303F580735B1B072B00F2828004F213
:106CB0001C4904F5836B04F2144A1BE0BDF816204E
:106CC000C2F389120332090C03EB92035046CDE95B
:106CD000013101F051FE029900283BD0019BA360D5
:106CE000484601F01DFED4E9013202F58072D21A45
:106CF000072A5FD80121484601F012FE584601F0EC
:106D00002BFE504601F028FEA368DAB2D11C04EB3A
:106D1000810014F821C01CF0040F0CF0040128D1EC
:106D200004EB8202591CD2680592C9B204EB8101BE
:106D300002F00302012AC96803F1020332D0022AD9
:106D4000BCD000215046CDE9013101F015FE029979
:106D50000028C3D14846C4E743880EEB9313DAB248
:106D6000D11C04EB810014F8211001F0040100296A
:106D7000D6D090F800C00CF0030CBCF1010F0BD082
:106D8000BCF1020F03F1020E02F1030CE4D004EB9C
:106D90008C000029EDD1C3E702880233C2F38312CD
:106DA0001344DCE7BDF81420C2F38312090C13442A
:106DB0008CE72B46DAB20332083340F285119DF896
:106DC000130044F82210636001F05AFAA81CE91C71
:106DD00005F1040CC0B2C9B26A1D04EB800004EBDB
:106DE00081015FFA8CFCAB1D04EB8C0CD2B2C76046
:106DF00004EB8202CE60EF1D189ECCF80C60DBB273
:106E0000199ED66004EB8303FFB21A9ADA6004EB92
:106E100087071B9B1448FB60002101F057FD80F39E
:106E200010004FEAC8016B1C01F03801039A41F4CD
:106E3000C071DBB2EDB204EB830341F00101000449
:106E4000033540EA184041EA8221D86044F8251011
:106E500023781BB1FFF778FB0028FBD10FB0BDE80A
:106E6000F08F00BFD02C0020EC30002030B4154D46
:106E7000D5F810140446002071B10B4601E01B68E0
:106E800053B1DB681A798242F9D101300A28F3D173
:106E90004FF0FF3030BC7047E3681871D5F81034FC
:106EA0004BB1DA68E36812681A60D5F81034DB6811
:106EB0001C6030BC7047C5F81044E268136030BCF9
:106EC000704700BFD02C002038B5084BD3F81044D1
:106ED00001251D704CB1E3685D71236820465B6835
:106EE0009847E3681C68002CF5D138BDD02C0020F1
:106EF00030B5C38885B004460D461BBB217A0529F1
:106F00001ED0627A82B9134AA08852F821200392D7
:106F10000021FFF7DFFA039A0F490346284605B020
:106F2000BDE8304001F0A4BDA088FFF7F7FA0B4B95
:106F30000B4953F82020284601F09AFD217AE2E718
:106F400005B030BD074A00920749084A284601F0BB
:106F50008FFDD3E7C0E2020024E202009CE20200BF
:106F600020E2020018E2020000E20200F8E1020062
:106F70002DE9F04385B04FF0000C0C9C814694F84D
:106F80000C8084F80CC00E461746184621461D4654
:106F9000FFF7AEFF062F09D8DFE807F0042E343BD9
:106FA000444F1F004946204601F062FD2B7A052B15
:106FB00005D06B7A5BB92749204601F059FD204680
:106FC00001F04AFD84F80C8005B0BDE8F083224A48
:106FD0002249204601F04CFDEDE7D6E90413F268A2
:106FE0000393B3680291CDE900324946D6E9002304
:106FF000204601F03DFDD9E732684946204601F0C0
:1070000037FDD3E7D6E900234946204601F030FD9D
:10701000CCE7B3680093D6E900234946204601F047
:1070200027FDC3E7D6E9023201920093D6E9002397
:107030004946204601F01CFDB8E7D6E90321B368B4
:107040000291CDE900324946D6E90023204601F0FD
:107050000FFDABE794E9020018E2020020E2020013
:10706000082900D970472DE9F04F9B4683B00024D2
:107070001B7B8BF80C400D46064659461046904641
:107080000193DFF8D0902C4FFFF732FF05E0325D1F
:10709000013401F0EDFC082C09D0A54239465846D0
:1070A000F5D84946013401F0E3FC082CF5D1234919
:1070B000DFF8A490224C234F584601F0D9FC4FF042
:1070C000000A0DE0D15D11F0970F08BF2E22214676
:1070D00058460AF1010A01F0CBFCBAF1080F10D0B2
:1070E000554505D916F80A207E2AEBD92E22EEE75F
:1070F000494658460AF1010A01F0BAFCBAF1080FF4
:10710000EED198F80830052B02D098F8093063B911
:107110000D49584601F0ACFC584601F09DFC019B1E
:107120008BF80C3003B0BDE8F08F084A0849584688
:1071300001F09EFCECE700BF30E202003CE20200FE
:1071400040E20200F5EF020094E9020018E20200BA
:1071500020E2020038E202002CE2020038B5174BB0
:107160001D783DB3164B1968C0B200230C4604E0ED
:107170000133AB4204F108041CD011F833209042D3
:10718000F6D102F00FFF6378A3F10103B3FA83F3A2
:107190005B09834200D038BD0A4BD3E90023134377
:1071A000F9D1094B094819680022BDE8384049085F
:1071B00000F0DABB00231B78FFDE00BF883100201F
:1071C000C8310020B03100208C31002090310020E7
:1071D0002DE9F04FDFF8548298F8003083B0002B8F
:1071E00000F01981DFF848928C4F8D4E00254FF04A
:1071F000010A3C6814F8350002F0D4FE04EBC50324
:1072000014F835405B784FEA540C14F0010E16F870
:107210000C10A3F10103B3FA83F314BF0A0901F0C0
:107220000F025B09042A00F2A080DFE802F0725D21
:1072300032200300834240F0AB80BEF1000F0CBF50
:10724000F0230F2303EA01030CBF0321302119436C
:1072500006F80C1098F8002001359542C9DBD9E9F1
:107260000023134340F0CD8003B0BDE8F08F83428C
:107270007BD0BEF1000F0CBFF0230F2303EA010304
:107280000CBF04214021194306F80C1098F8002087
:10729000E2E783426CD1BEF1000F0CBFF0230F2355
:1072A00003EA010398F800200CBF032130211943A1
:1072B00006F80C10002AD2D0D7F800C0002361468F
:1072C00003E0934201F10801C6D01CF83300A0424C
:1072D00003F10103F5D14B68002BBDD020460121FD
:1072E000984798F80020B7E7834219BF002003466B
:1072F00002232020BEF1000F0CBFF0220F2201EA72
:10730000020118BF03460B4306F80C3098F8002022
:10731000A2E7834229D1BEF1000F14BF0F23F0234F
:1073200003EA010314BF1021012119430DF10700E5
:107330004FF0000306F80C108DF8073000F07AFFCC
:10734000D9E90032A4F12001C4F120000AFA01F1C8
:107350002AFA00F001430AFA04F4114323439DF88A
:107360000700C9E9003100F08BFF98F8002073E7AF
:10737000BEF1000F0CBFF0230F2303EA01030CBF83
:1073800001211021194306F80C1098F8002063E73A
:10739000BEF1000F14BF0F23F02398F8000019402E
:1073A00006F80C1098B1D7F800C00023624603E03D
:1073B000834202F108020AD01CF83310A14203F103
:1073C0000103F5D1536813B10021204698474FF0CF
:1073D00000030DF107008DF8073000F02BFFD9E90D
:1073E0000032A4F12001C4F120000AFA01F12AFAC6
:1073F00000F001430AFA04F422EA010123EA04033B
:10740000ADE7084B084819680022490800F0ACFABB
:1074100003B0BDE8F08FDFF8189020E7C8310020F6
:10742000B83100208C3100209031002088310020BC
:10743000B0310020092A43D92DE9F04182B0144629
:1074400006460D4602F062FC002832D0214A22494D
:10745000224B16600D7022481C600021102206F09D
:1074600059FB204B002000216C1EC3E90001E4B24F
:1074700045B3DFF87C8006EBC404032702E0A64294
:1074800020D01C469DF80630A57820788DF8047031
:1074900023F00703424601A98DF806308DF8055008
:1074A00002F03EFCA4F108030028E8D002B0BDE8D9
:1074B000F08102F0DBFB0028C8D002B0BDE8F0810B
:1074C00007207047084A0948002100F03FFA02B03F
:1074D000BDE8F081C8310020883100208C310020C7
:1074E000B8310020B0310020D1710200E0E202008A
:1074F0005D71020070B5084D2B785BB1074E00241A
:107500003368012113F8340002F0EEFC2B780134CB
:10751000A342F5D8002070BD88310020C83100207A
:1075200000B585B00346002101AA44F20100CDE96F
:107530000111039300F004F805B05DF804FB00BFEF
:1075400010B572B6FFF7C0FCFEF7FEFF0028FBD1B6
:10755000104B114C1149E41AE408240444F00100D2
:10756000FFF71AF90E4B1B68DB0700D500BE0D496B
:1075700044F00200FFF710F9BFF34F8F0A490B4B9D
:10758000CA6802F4E0621343CB60BFF34F8F00BFC1
:10759000FDE700BF74F10200BCF10200E4E202006A
:1075A000F0ED00E0F0E2020000ED00E00400FA057A
:1075B000D0E90223D1E90201994208BF90422CBFD1
:1075C00001200020704700BF2DE9F04F2DED028B08
:1075D00085B0064601F07AF840B1B54AD2E90031EB
:1075E00013F1807341F10001C2E9003100213046FE
:1075F00001F088F8AF4C60B1236853B1AE4B2568F9
:107600001B7823B11DB12B7F002B40F01C81002380
:1076100023600121304601F075F8002840F0F68023
:10762000A64803A901F0F4F878B3A54DDFF88882E5
:10763000A24F0BE0002B00F0CD8003A9384601F0EB
:1076400017F903A9384601F0E3F8F0B10378012BEC
:1076500012D0022BEED128464FF0000901F002FFB4
:1076600030B180F81C90284601F0FCFE0028F8D1CB
:10767000012388F80030E0E741682368994200F070
:10768000BA80284601F0F8FED7E7DFF834828D4F44
:10769000DFF81C9208EE106A37E0404601F0E2FE87
:1076A00005463846AB68EA680193009201F03AF863
:1076B000854E8446D9E90001D6E9002310EB0C0081
:1076C00041F10001994208BF9042DDE9002303D255
:1076D00010F1807041F10001B3EB000A62EB010B85
:1076E000BAF1010F7BF1000329DBBAF5350F6BD23C
:1076F000AA684FF496030021384600F061FF002885
:107700005AD00D281FD000232360404601F0B0FE60
:10771000002873D02368002BBFD02368D0E9020172
:10772000D3E90223994208BF904248D223681B7FC5
:10773000002BB2D02168404601F080FEADE7002169
:10774000384600F0D3FF5C4B1B78002BDBD02B7F3F
:10775000002BD8D0384600F0E5FF8446D9E9000177
:10776000D6E9002310EB0C0041F10001994208BF5B
:10777000904203D210F1807041F10001D5E902235B
:10778000994208BF904259D32B6903B92B77D5E9A9
:107790000530984729690029B5D02B7F002BB2D03E
:1077A000D5E90223521843F10003C5E90223294613
:1077B000404601F043FEA6E72368BBB1256005B053
:1077C000BDEC028BBDE8F08F384600F0ABFF3F4ABE
:1077D00002448EE743681A7F002A7FF42EAF01220D
:1077E0001A774168284601F029FE26E718EE100AAC
:1077F00000F0B8FEE2E7002323601EE72368002BB9
:10780000DDD118EE100A00F0B1FED8E72D482E4D5C
:1078100000F088FF264BD3E90089D5E9002318EB57
:10782000000849F10009994508BF904503D218F1B5
:10783000807849F10009C5E90089F1E6294640460A
:1078400001F0FCFD5FE71F4800F06CFF184A1E4B7B
:10785000D2E90089D3E9002318EB000849F10009B7
:10786000994508BF904503D218F1807849F1000985
:10787000D5E90223994508BF904529D32B6903B95F
:107880002B77D5E905309847296900293FF4BFAE29
:107890002B7F002B3FF4BBAED5E90223521843F1F6
:1078A0000003C5E902230648294601F0C7FDAEE6FC
:1078B000D031002050320020D83100203432002056
:1078C00010E30200E02A002048320020FFFFB4004D
:1078D0000248294601F0B2FD99E600BF10E302001C
:1078E00010B5134B13491B68134882B058220193FB
:1078F000082300F037FF044610B1204602B010BD47
:107900000E4A0F4801A900F0CDFD04460028F4D12D
:107910000B48012100F0D0FE01231946094A08480E
:1079200000F028FE084B012220461A7002B010BD5C
:107930000CE30200DC31002034320020C975020063
:10794000E02A0020FFFF7F00D83100204AB1A1F1DA
:1079500001010368B1FA81F14909C3E90412002069
:1079600070470720704700BF037F0BB100207047AE
:10797000F0B5826183B004461A480D4600F0D2FE8D
:10798000194B1A49D3E90023D1E90067121843F1D2
:107990000003BB4208BFB24203D212F1807243F12E
:1079A00000035219216943F10003C4E9022301B124
:1079B00025610F4801A900F0EDFE48B100254460A3
:1079C000057001A90A4800F013FF20B903B0F0BD0B
:1079D000042003B0F0BD034800F0A8FE284603B021
:1079E000F0BD00BFE02A0020D03100204832002046
:1079F0003432002030B5002583B00446057701A954
:107A00000B4800F0C7FE78B101224460027001A962
:107A1000074800F0EDFE08B903B030BD054800F09E
:107A200085FE284603B030BD042003B030BD00BF42
:107A300034320020E02A00202DE9F041644B1A681E
:107A400088B002BB634F97F82E30002B29D1624BD0
:107A50001A685AB100221A601B68039302218DF83C
:107A600014103B6803993A7405A898475B4B1C684F
:107A7000002C30D000221A601B680593059B3A74D5
:107A800008B0BDE8F081534F00221A60196897F8DA
:107A90002E3000910099002B4ED097F82F30002BFC
:107AA00063D14F4B1A68002AD1D0002119601868A1
:107AB00097F82D207B8B01909342019894B263D864
:107AC00074D0434B474A002119601B68029301237D
:107AD00002991360BBE77E69002ED1D04FF00048B9
:107AE0000125B6FA86F101F146039B0003F18042BD
:107AF00002F5E042A3F58C73D2F800E083F00400B5
:107B000028FA01F1C0F3800CDB0805A826EA01067B
:107B1000BEF1000F0BD01460126804928DF818307B
:107B20008DF814503B688DF819C0049A9847002EC0
:107B3000D7D108B0BDE8F081FA68786839898DF846
:107B400014300690ADF81C10002A2CD02648398B32
:107B50007A600122FB607983398102603B6805A865
:107B60009847002387F82F306DE7FB6878683989DC
:107B70008DF814200690ADF81C10A3B1398B7B60F2
:107B8000FA6079833981E9E7398978681B1B9BB2F0
:107B900089B2154C7B83C91A00EB4101C4F82C163D
:107BA000C4F830268DE700233B74D7E7FB684BB160
:107BB0000D487983012187F82F10C0F82C36C0F8C2
:107BC00030267EE701227B8387F82F2079E700BFEC
:107BD00004710040543200201071004014710040C4
:107BE000007100400470004000700040234B93F887
:107BF0002C20002A40D170B4214D04781960C5F8BA
:107C0000F04544781F49C5F8F4456FF000441A74F4
:107C1000C678C5F8084385B00A60096803911A4917
:107C2000039C0A600968194C0291029922608178CC
:107C3000206801904901164883F82D205A6183F885
:107C40002F20C9B20122019C83F82E6083F82C20DA
:107C500080F807138021016093F82E300221C5F8C7
:107C600004130BB1C5F80423054B01220020C3F80F
:107C7000002505B070BC70470820704754320020C2
:107C80000070004004710040007100401471004019
:107C900000E100E09D499E4B6FF00040802270B4EF
:107CA000C1F80803C3F88020BFF34F8FBFF36F8F75
:107CB000984B01221A6001F58A7142F2107301E0BB
:107CC000013B02D00A68002AFAD0934B8F4C187FF0
:107CD00093F82D2059690025C4F800551D7400281B
:107CE00040F0F9809C7F002C40F0D78093F8204032
:107CF000002C40F0B48093F82240002C40F091809A
:107D000093F82440002C6FD193F82640002C4ED1DC
:107D100093F828404CB993F82A402CBB00283ED158
:107D2000002283F82C2070BC70471D7C05F0FF04F6
:107D3000002DF0D1794D75481C8593F82A60C5F85F
:107D40001445C5F81045764CC0F87C454FF4002426
:107D5000C0F80843013A4FF48024D2B221F4402104
:107D6000C0F80843DEB101201D7C05F0FF04002DA2
:107D7000D4D16C4D65485C85C5F81445C5F81045EF
:107D8000674CC0F88C45013A4FF400154FF480144D
:107D9000C0F80853D2B221F44031C0F8084383F848
:107DA0002D200022596183F82C2070BC70471D7C67
:107DB00005F0FF04002DABD15B4D5448DC84C5F8C1
:107DC0001445C5F81045564CC0F86C45013A4FF4BF
:107DD00000354FF48034C0F80853D2B2C0F80843DD
:107DE00021F44011012093E71D7C05F0FF04002DD4
:107DF0008AD14E4D45489C84C5F81445C5F81045B8
:107E0000474CC0F85C45013A4FF400454FF48044BC
:107E1000C0F80853D2B2C0F8084321F44001012051
:107E200072E71D7C05F0FF04002D7FF469AF404D23
:107E300036485C84C5F81445C5F81045384CC0F880
:107E40004C45013A4FF400554FF48054C0F80853A4
:107E5000D2B2C0F8084321F04071012050E71D7CE8
:107E600005F0FF04002D7FF446AF324D27481C84F7
:107E7000C5F81445C5F81045294CC0F83C45013AF1
:107E80004FF400654FF48064C0F80853D2B2C0F8D4
:107E9000084321F0406101202DE71D7C05F0FF041F
:107EA000002D7FF423AF244D1848DC83C5F814451A
:107EB000C5F810451A4CC0F82C45013A4FF400752E
:107EC0004FF48074C0F80853D2B2C0F8084321F0D0
:107ED000405101200AE71E7C06F0FF009EB9C4F85D
:107EE00014050F4EC4F81005013A988380254020F0
:107EF000C4F81C65D2B2C4F8085321F04041C4F85C
:107F000008030120EEE62846ECE600BF00700040C2
:107F100000E100E008700040543200206070004032
:107F200000F8FF0770700040507000404070004043
:107F3000307000402070004010700040334A137CC5
:107F4000002B60D1F0B40C79012C4ED900F10C0556
:107F500002EB45031B7923B992F82D30013382F8E7
:107F60002D304B788E7891F800C04F791B01360286
:107F700006F4E06603F030033343CE780CF0030CD4
:107F8000360306F4805643EA0C0333438E793F05EB
:107F900007F48017360602EB450206F080761C4D8A
:107FA00024043B4304F4E0243343234305EB00164D
:107FB000CC79147100010C7A547100F18040C6F83C
:107FC000183500F5E040CB790A7AC0F81425C0F8DE
:107FD00010350B79012B02D90020F0BC704701232A
:107FE000C5F800350020F0BC704703F0FF05084BD2
:107FF000C3F8005500F10C0502EB45030C791B7921
:10800000002BAED1A8E71120704700BF54320020EA
:1080100000700040F0B42D4D2D4B1222C5F80823FE
:108020001C7C022C82B04BD01A7C012A24D093F8FD
:108030002E205860022701240026C5F804731C7402
:10804000DE6019816AB9234BC5F82C06C5F83016D5
:108050001A601B680193019B2C60104602B0F0BCB3
:10806000704793F82D20C5F82C0630465983C5F883
:10807000302602B0F0BC7047DA6832B1022311201A
:10808000C5F8043302B0F0BC704793F82E20D860D6
:1080900019836AB90F4A1368002BFCD000231360C0
:1080A00012680A4B0092009AC3F82C06C3F83016E7
:1080B000064B02220020C3F8042302B0F0BC704734
:1080C0001120C5F8042302B0F0BC704700700040D6
:1080D0005432002000710040084A137C012BD9B2B1
:1080E00001D00820704792F82E0018B1044B0020F0
:1080F00019607047034B1960704700BF543200206D
:10810000007000400470004070B41C4D8BB205EB51
:10811000001643EA02434000802411F5006FC6F8C0
:108120001C35174904FA00F41ED04E69C5F8044303
:108130004FF00043441CE340334340F2FF75AA4232
:108140004FF040044FF0004204FA00F40B4D4B6135
:1081500022FA00F00BBF83430343C5F80843C5F878
:1081600004434B6170BC70474B69C5F80843451C1C
:108170004FF00044EC4023EA0403DEE700700040C7
:10818000543200202DE9F041114CDFF84C80114EA3
:1081900082B000254FF48037236807FA05F10135D6
:1081A0007BB1D8F80423A4F5004011424FF000033E
:1081B00080B206D0236023680193D6E90031019A8A
:1081C0009847042D04F10404E6D102B0BDE8F08123
:1081D0004081004084320020008000402DE9F041C1
:1081E000114CDFF84C80114E82B000254FF48037DF
:1081F000236807FA05F101357BB1D8F8042304F5AB
:10820000E04011424FF0000380B206D023602368A3
:108210000193D6E90331019A9847042D04F104042F
:10822000E6D102B0BDE8F0814091004084320020E8
:108230000090004070B4EFF3108472B60D4B9A6852
:10824000AAB90D490D4E01259D60D1F880503540E9
:108250001D60C1F88060D1F884505D604FF0FF333D
:10826000C1F88430027004B962B670BC7047012353
:108270000370F8E7503C002000E100E0FC06FFBD81
:10828000094B9A687AB170B910B4EFF3108172B6E5
:10829000064A1C6814605C685460986001B962B654
:1082A0005DF8044B70477047503C002000E100E04F
:1082B00070B443791E4C1F4E03EB430546F8232050
:1082C000655D8DBB90F904308A78002B24DB03F1C7
:1082D000604303F561435201D2B283F8002390F961
:1082E0000430002B07DB144D03F01F0601225B094D
:1082F000B24045F8232003680A88C3F8082543796B
:108300000879C97803EB4303E21801255070917096
:10831000E554002070BC7047084D03F00F03520174
:108320001D44D2B22A76DAE7082070BC704700BF3D
:108330009C320020A032002000E100E0FCEC00E0D4
:108340000368044A01211960437903EB43030221C6
:10835000D15470479C320020F0B44FF4803504684B
:10836000234E8D40C4F848530468C4F80853447938
:1083700004EB4404344482B0647822F07F42F4B1C8
:10838000046801F5A87744F827200768D7F804C5E2
:10839000ACEB02049445427902EB4202164438BF2A
:1083A00004F1FF14B27838BF04F57F44A2421BDC0D
:1083B0006BB90020C7F8445302B0F0BC70470468A2
:1083C00001F5A87644F826200768002BF1D050313B
:1083D000890089B200237B507A5803680192019A80
:1083E000C3F804530768E4E70D2002B0F0BC7047FF
:1083F0009C3200202DE9F041274F284EDFF8A08065
:1084000084B000244FF48035D7F804332B4211D0C8
:1084100056F824200023E0B262B1C7F84853C7F8E9
:10842000085346F8243056F824300393D8F8003027
:10843000039A98470134042C4FEA4505E4D1164BC2
:10844000D3F80423D10702D5D3F80021C2B9124BC7
:10845000D3F80423920710D5D3F804216AB100227F
:10846000C3F80421D3F804210D4B0192019A1B6833
:10847000052004B0BDE8F041184704B0BDE8F08124
:108480000022C3F80021064AD3F8003102932046A7
:108490001368029A9847DAE70040024040410240E0
:1084A000A032002070B5274C4379274E04EBC3055A
:1084B00046F823202D79002D37D103680A88C3F8A8
:1084C000082590F904308A78002B26DB03F16043FD
:1084D00003F561435201D2B283F8002390F90430CE
:1084E000002B07DB194903F01F0501225B09AA4095
:1084F00041F823204279164B164D44F83200581BA0
:1085000004EBC204C008012300041349237140F0A6
:108510000300FEF741F9002070BD104903F00F037E
:1085200052011944D2B20A76D8E70A4B08480C49DE
:10853000C01AC008000440F00200FEF72DF9082020
:1085400070BD00BFA4320020AC32002000E100E08A
:10855000CCF1020074F1020054E30200FCEC00E0F4
:1085600030E30200036801221A60704703680122A9
:108570005A607047F0B404684FF480358D40C4F8F9
:108580000853066801F15004C6F84853A400066871
:10859000A4B20027375182B036590468019601F51C
:1085A000A87122F07F42019E44F821200268C2F89F
:1085B000445313B10368C3F8045302B0F0BC7047CE
:1085C0002DE9F04704464FF4803600688E40C0F82D
:1085D00048632068C0F80863206800EB81058A467C
:1085E000D0F80415D5F84005C5F840150AF1500536
:1085F000AD002768ADB24FF0000847F8058082B0A3
:10860000401A7F59009720F07F40012822F07F47D1
:108610009946009A41D02268D2F80455C2F84463C2
:108620007A1B22F07F42012A0AF5A87125D0226820
:1086300042F821702068D0F804557A1BC9F1FF1365
:10864000013A03F57F4322F07F42934211D342B1B6
:10865000C0F8446323680020C3F8046302B0BDE897
:10866000F087013740F821702068D0F804359D422A
:10867000EED00D2002B0BDE8F08720680D4B013729
:1086800040F8217043F001034FF480609847206860
:10869000D0F804359D42DBD0EBE7064A4FF480600A
:1086A00042F001029047226842F805805259019237
:1086B000019AB0E770E3020002680223C2F8443373
:1086C00011B10268C2F80433704700BF0368D3F8E1
:1086D000040100B97047002282B0C3F80421D3F826
:1086E00004310193019B012002B0704702684FF4EE
:1086F000803303FA01F1C2F848130368C3F8081382
:10870000704700BF50318900036889B2585800B9DA
:10871000704700225A5082B05B580193019B0120A0
:1087200002B070470368D3F80405704790F904302D
:10873000002B09DB5A090548403203F01F030121D1
:1087400001FA03F340F82230704700BF00E100E077
:10875000024A034B10681B68184700BFA432002070
:10876000AC32002099B110B4B2FBF3F403FB142433
:10877000A4B244B9C0E9001484608281C381204658
:108780005DF8044B704709205DF8044B70470E20DC
:10879000704700BF30B482B050E8013F9DB2C48939
:1087A00025448489A54228BF2D1B0489A54202BF08
:1087B000BFF32F8F002207E0C5EA030540E801540C
:1087C000002CE9D14FF001028DF803200193019BA9
:1087D0009DF803200B602AB10B880068184402B092
:1087E00030BC704702F0FF03184602B030BC70473F
:1087F0000A884B889A4201D00020704750E8012F28
:10880000C2EA024240E80123002BF7D10120704761
:1088100030B482B050E8023F1FFAA3F5C488A542E5
:1088200002BFBFF32F8F00220DE0C4892544848945
:10883000A54228BF2D1BC3EA054540E80254002C81
:10884000E8D14FF001028DF803200193019B9DF8C0
:1088500003200B602AB14B880068184402B030BC7A
:10886000704702F0FF03184602B030BC704700BFEB
:108870000A884B889A4201D00020704750E8022FA6
:10888000C2EA224240E80223002BF7D101207047C0
:108890004A09012301F01F0100EB820003FA01F1F4
:1088A00000F022B801F01F0201234909934000EBB8
:1088B0008100D94300F026B84B0901F01F0150F8A0
:1088C0002300C84000F00100704700BF10B4034609
:1088D00053E8000F0A4643E8002494F0000FF7D154
:1088E0005DF8044B704700BF10B4034653E8002FF7
:1088F00042EA010043E8000494F0000FF6D15DF86D
:10890000044B704710B4034653E8002F02EA0100FD
:1089100043E8000494F0000FF6D15DF8044B704773
:1089200010B4034653E8002F02EB010043E80004B3
:1089300094F0000FF6D15DF8044B704710B4034675
:1089400053E8002FA2EB010043E8000494F0000F6D
:10895000F6D15DF8044B704710B40346012253E88A
:10896000001F41EA020043E8000494F0000FF6D132
:108970005DF8044B704700BF10B40346002253E873
:10898000000F00EA020143E8001494F0000FF6D152
:108990005DF8044B704700BFB8B130B4D0E90112A4
:1089A000521A0468D2B2531E2160DBB242B1016890
:1089B0000A685C1E551C0D601370E3B2FF2BF6D1E4
:1089C00003680020187130BC70470E20704700BF4C
:1089D000F0B583B0044600250DF107008DF807506F
:1089E000FFF728FCD4E900311A688A4210D9511ED9
:1089F00019602168A3680F6812F8015C0A79268A59
:108A0000E068DB1BDBB29A4206FB050538BF0B7141
:108A10009DF80700FFF734FC284603B0F0BD00BF07
:108A200030B5054683B000230DF107000C468DF8E4
:108A30000730FFF7FFFB2A681368591C1160E968CB
:108A40002A8A641AB4FBF2F41C709DF80700FFF741
:108A500017FC03B030BD00BF826842B110B50446B8
:108A600043690168006998470023A36010BD7047FF
:108A70000EB400B582B0039921B104AB01AA0193F1
:108A800000F0ACF802B05DF804EB03B0704700BF33
:108A90002DE9F04F164683B0B142DDE90C920F4646
:108AA00005469A46C0F095800B464FF00108B3FB8F
:108AB000F6F39E4208F10108F9D9D04538BFD046F7
:108AC00012F00103019302D1B9F1000F5ED1AA683F
:108AD000012403E00AF1FF3A06FB04F4BAF1010FA6
:108AE000F8D8B7FBF4F39E42F6D9DFF8ECA007E024
:108AF000B442B4FBF6F31AD3AA681C46B7FBF3F3EF
:108B00001AF803B0BBF10A0F04FB137728D02B68C7
:108B1000511CA96003F802B0D5E901329A42E7D3AB
:108B20002846FFF799FFB4FBF6F3B442E4D2019B69
:108B30009BB1B9F1000F10D02024C84509F1FF39CD
:108B40000BD2AB682A68591CA960D454D5E901320C
:108B50009A4214D2B9F1000FEFD103B0BDE8F08F03
:108B6000511C2B68A9604FF00D019954D5E90132D1
:108B70009A42CCD32846FFF76FFFAA68C7E728467A
:108B8000FFF76AFFB9F1000FD7D1E6E793071AD4D0
:108B90002024AA68C84502F1010199D22B68A96076
:108BA0009C54D5E901329A4209F1FF3903D2B9F157
:108BB000000FEFD18CE72846FFF74EFFAA68B9F106
:108BC000000FE7D184E7BAF1000F0CBF3024202456
:108BD000DFE74FF0010870E778E30200002900F0BA
:108BE00054822DE9F04FDFF8B8950C7885B0064631
:108BF00090460D464FF00D0A10E00A2CB36800F0C5
:108C0000AD803268591CB160D454D6E901329A4221
:108C100080F0A0802C78002C00F087800135002C9B
:108C200000F08380252CE8D1294600270D4611F855
:108C3000012B2D2A00F08880302A00F088802B2A12
:108C40007AD02A2A00F09980A2F13003092B4FF044
:108C500000040BD804EB840402EB440415F8012F44
:108C6000A2F13003092BA4F13004F3D92E2A00F02D
:108C70009080002301E015F8012F02F0FB01682924
:108C8000F9D0252A00F07781583AD1B2202947D867
:108C9000202A45D8DFE812F03501440044004400A2
:108CA00044004400440044004400440044004301A4
:108CB00013014400440044004400130144004400F4
:108CC0004400440044004400D20044004400A20098
:108CD00044009400440044003501012098420246BB
:108CE00038BF1A460292002C40F05081B80740F17C
:108CF0006E81002B40F04E821C46BBF1000FC0F28B
:108D00000A827A0700F11A8207F00302022A00F0B1
:108D1000EA81CDE9004759460A223046FFF7B8FEFE
:108D200001352C78002C7FF479AF337B002B40F099
:108D30001C8105B0BDE8F08F0D4611F8012B2D2ADE
:108D400047F004077FF478AF47F001076EE747F07C
:108D500002076BE73046FFF77FFE5BE73268591C7E
:108D6000B16002F803A0D6E901239342FFF449AFB2
:108D70003046FFF771FEB36843E7D8F800301A1D9C
:108D8000C8F800206A781C682E2A05F101057FF4D6
:108D900070AF6A78A2F13003092B05F101054FF09D
:108DA00000033FF66AAF03EB830302EB430315F8BE
:108DB000012FA2F130010929A3F13003F3D95CE7B7
:108DC000D8F80020111DC8F8001011683046CDE910
:108DD00000470A22FFF75CFE0135A2E7D8F8003011
:108DE0001A1DC8F8002017F00107D3F800B040F0B2
:108DF000F080BBF1000F03D0584604F041FF074656
:108E0000BC4240F24381002C00F04081202205E06A
:108E1000BC4200F03B81002C00F03881B16833681F
:108E2000481CB0605A54D6E90130984204F1FF342E
:108E3000EED33046FFF710FE2022E9E7D8F80020F5
:108E4000131DC8F80030B36831681768581C302209
:108E5000B060CA54D6E90123934280F0EF803268B3
:108E6000581C7821B060D154D6E901329A4280F082
:108E7000E0800F2F03D93B461B090F2BFCD84FF086
:108E8000805406E00F2C4FEA14137FF649AFB26806
:108E90001C46B7FBF4F319F803B0BBF10A0F04FB4F
:108EA000137754D03368511CB16003F802B0D6E98F
:108EB00001329A42E6D33046FFF7CEFDE2E7D8F81A
:108EC0000020111DC8F80010D2F800B08BEAEB7238
:108ED000A2EBEB72092A7FF700AFDFF8C8C20120CE
:108EE00011466329ACFB02E200F101004FEAD20215
:108EF000F6DC9842024638BF1A460292002C45D151
:108F0000F4E6D8F80020111DC8F8001011683046AA
:108F1000CDE900471022FFF7BBFD013501E7D8F886
:108F200000301A1DC8F800201C78B3680A2C00F025
:108F300011813268591CB160D454D6E901329A4289
:108F4000FFF4EEAE3046FFF787FD0135E9E6336802
:108F5000511CB16003F802A0D6E901329A42A1D3B4
:108F60003046FFF779FDB2689CE7304605B0BDE8B2
:108F7000F04FFFF771BDB3683168581CB060CA5438
:108F8000D6E901329A42DDD20135CAE6BBF1000FC3
:108F900059DB7A0757D4B80702D5002B3FF4ADAEA2
:108FA000F9073FF5AAAE94B120220299A142BFF47D
:108FB000A4AEB168481CB06030684254D6E90101E3
:108FC000814204F1FF3480F0D480002CEDD10024E4
:108FD00093E69BF80030002B00F0E080B0685F461D
:108FE000CBF101020A2B02EB070B3CD0411CB16014
:108FF00031680B54D6E90130984226D217F8013F68
:10900000002BEFD15C457FF68BAE202702E05C455C
:109010003FF486AEB2683368511CB1609F54D6E904
:1090200001329A4204F1FF34F1D33046FFF714FDC8
:10903000EDE73046FFF710FDB2681AE73046FFF75C
:109040000BFDB3680BE7013CA5E730460292FFF742
:1090500003FD17F8013F002BD4D0029AB0680A2B09
:1090600002EB070BC2D1411CB160316801F800A0CE
:10907000D6E901108842B9D33046CDE90232FFF774
:10908000EBFCDDE90232B068B0E770479BF80040C6
:10909000002C3FF445AE0A2CB0680ED03368421C59
:1090A000B2601C54D6E90130984214D21BF8014F2B
:1090B000002C3FF435AE0A2CF0D13368421CB2606C
:1090C00003F800A0D6E901309842E7D33046FFF715
:1090D000C3FCB068E2E73046FFF7BEFC1BF8014F67
:1090E000002CD8D11CE6002B7FF413AE8CB13022BB
:1090F0000299A142BFF40DAEB168481CB06030685F
:109100004254D6E90101814204F1FF343BD2002CE4
:10911000EED10024FDE5B1684A1CB26032682D2012
:109120005054D6E901219142CBF1000BFFF4ECAD94
:1091300030460393FFF790FC039BE5E5B1684A1CBA
:10914000B26032682B205054D6E901219142FFF4DD
:10915000DBADEDE73268591CB16002F803A0D6E937
:1091600001239342FFF4E5AE3046FFF775FCB36888
:10917000DFE630460393FFF76FFC039B2022002CB1
:109180007FF413AF23E730460393FFF765FC039B9F
:109190003022BCE7F9073FF5B0AD18E79B4631E751
:1091A00078E30200CDCCCCCCFFF7F6BB2DE9F04143
:1091B000058A0331043D4E198046B6FBF5F6FFF7EC
:1091C00007FCA0B3F6B24FF48073013E0446C5809D
:1091D000C0F8008083802BD00346002508E0627928
:1091E000AE4202F1010262713860C0F800801FD007
:1091F00040461F46FFF7ECFB013503460028EED141
:109200006779791E17D02246013399421268FBD143
:10921000D2F800805FB12668002501E03446366848
:10922000214601354046FFF7FBFBAF42F6D800244C
:109230002046BDE8F08120682146FFF7F1FBF6E704
:1092400004300121FFF76CBB2DE9F04101210446F8
:109250000430FFF773FB10F0FF0301D0BDE8F0818D
:109260006779791E16D02246013399421268FBD1E4
:10927000D2F80080002FF1D02668002501E03446A6
:109280003668214601354046FFF7CAFBAF42F6D8A3
:10929000BDE8F08120682146BDE8F041FFF7C0BB82
:1092A0002DE9F8430546C6884079144606FB00F2CE
:1092B000043A04EB030C1F1D624538BFD41ABE42AA
:1092C0008846B7FBF6F106FB117002D801392D680C
:1092D000FCD1371AA74228BF27469CB14FF000099E
:1092E0000430E41B28443A4608EB090104F078FBFB
:1092F000A642B9442D6837464FF0000028BF2746E4
:10930000002CEDD1BDE8F8832DE9F8430546C68869
:109310004079144606FB00F2043A04EB030C1F1DCF
:10932000624538BFD41ABE428846B7FBF6F106FB49
:10933000117002D801392D68FCD1371AA74228BF15
:1093400027469CB14FF0000904302918E41B3A4627
:1093500008EB090004F044FBA642B9442D683746E7
:109360004FF0000028BF2746002CEDD1BDE8F88360
:1093700041DF7047064A074B10B5002414701C608B
:10938000BFF35F8F0449054800F042F8204610BD46
:10939000B8320020BC32002094E30200B03200203A
:1093A00000B583B000230DF107008DF80730FEF7FC
:1093B00041FFF1EE103A23F09F03E1EE103ABFF3C4
:1093C0005F8F0B4B4022C3F884219DF80700FEF706
:1093D00057FF04F003F928B920BF40BF20BF03B0F6
:1093E0005DF804FBFFF7C4FF03B05DF804FB00BFAA
:1093F00000E100E082680023936082681361826864
:1094000053618268D36082685360826813607047DA
:1094100001600B6843604A68934204BF00234360C5
:10942000704700BF436843B1026891680B444360D2
:109430005268934204BF00234360704770B544688C
:10944000064620680D4618B908E02468206828B14F
:10945000B368294698470028F7D12068286025601E
:1094600070BD00BF4368186808B102681A60704791
:1094700043681868704700BF4368186818B908E067
:109480000346006828B18142FAD10A681A600120B7
:1094900070477047114910B4A1F5947205E052F875
:1094A0003330984238BF21460CD28C1AE30F03EBBD
:1094B000E4035B10914202EBC304F0D808485DF866
:1094C000044B704702D904F10802EEE76068044BD0
:1094D0005DF8044B002808BF18467047D4E8020026
:1094E00098E7020030B4974B1B685D1C00F00281C6
:1094F000954A1268062B00F0F280944B1B78062BDD
:1095000000F0DC808F4B1B685C1C00F0D0808E4A22
:109510001268062B00F0C0808C4B1B78062B00F0E5
:10952000A880884B1B68581C00F09C80864A1268F3
:10953000062B00F08980854B1B78062B66D0814B6B
:109540001B68591C2AD0804A062B11681BD0804A00
:10955000D2F8883043F47003C2F88830BFF34F8FDD
:10956000BFF36F8F4FF01023D3F80022002AC0F210
:109570008181D3F80432002BC0F27C81754B764A8E
:109580001A6030BC7047CA1E032A40F211810339A9
:10959000032940F2B6806C4B1B68C2E06B496F4AEE
:1095A000097812680629C2F30312D0D1033A032ABC
:1095B00040F2FE80654A694B12781B68062AC3F3A5
:1095C0000313C4D1033B032B40F29B805F4A634BE0
:1095D00012781B68062AC3F3031308BF4FF0FF324B
:1095E000B5D1033B032B40F2A280574B1B68062AE0
:1095F000ADD1033B032BAAD8594AD35C002BA6D08C
:10960000584A136843F480631360A0E7534B1B6808
:10961000C3F30313033B032B91D8534AD25C12B11B
:10962000524A03211160524AD35C002B87D0514A21
:10963000514C5249524B05201060012500203F2219
:10964000256008601A607AE7033A032A3FF673AF91
:109650004FF080430022C3F80C21C3F81021C3F857
:10966000382568E73D4A394B12681B78C2F303126C
:109670005EE73A4B1B68C3F30313033B032B3FF630
:1096800050AF404AD35C002B3FF44BAF3E4AD36807
:1096900023F08073D36044E7033A032A3FF63CAFDC
:1096A0003A4B3B4A1B68C3F34233136034E72B4AFF
:1096B000264B12681B78C2F303122AE7274B1B685C
:1096C000C3F30313033B032B3FF61CAF314AD35CB8
:1096D000002B3FF417AF304B304A1A6012E7033AC1
:1096E000032A3FF60AAF2E4B2E4A1B68C3F304230E
:1096F000136002E7194A154B12681B78C2F3031274
:10970000F8E6294B0F4A1B681268284903F04F03FB
:109710000B60531C3FF45AAF0B4B062A1B687FF4B7
:1097200016AF033B032B4FF006023FF65EAF4FF040
:109730008041D1F8003413F0010F034B40F09280C8
:109740001B6854E73001001034010010E00F00F0F6
:1097500000ED00E0E82A00200090D003E80F00F0C0
:10976000D8E802003C170040DCE80200A0050040F9
:10977000DCE80200105600408856004018560040B1
:1097800014560040DCE80200F0ED00E04402001056
:109790003C050040DCE8020074C007400DF0ADBAA3
:1097A000240300104035014058020010E40E004030
:1097B00049498A5C002A48D04FF08053474AD3F881
:1097C0000414C2F82015D3F80814C2F82415D3F8ED
:1097D0000C14C2F82815D3F81014C2F82C15D3F8BD
:1097E0001414C2F83015D3F81814C2F83415D3F88D
:1097F0001C14C2F84015D3F82014C2F84415D3F84D
:109800002414C2F84815D3F82814C2F84C15D3F81C
:109810002C14C2F85015D3F83014C2F85415D3F8EC
:109820003414C2F86015D3F83814C2F86415D3F8AC
:109830003C14C2F86815D3F840142948C2F86C15D6
:10984000D3F844140368C2F870155A1C3FF4B2AE42
:10985000244A062B11687FF47AAE033903293FF6B8
:109860009AAE4EE71E4A1B6812686FF00100C1F8FD
:109870000004BCE61C4A0123C2F80435D2F80034C7
:10988000002BFBD04FF010231521174AC3F800120C
:10989000D2F80034002BFBD04FF010231521124AD0
:1098A000C3F80412D2F80034002BFBD000230E4979
:1098B000C2F80435D1F80034002BFBD0BFF34F8F32
:1098C0000A490B4BCA6802F4E0621343CB60BFF352
:1098D0004F8F00BFFDE700BFD4E8020000C000408A
:1098E000300100103401001000E0014000ED00E004
:1098F0000400FA054FF0A042044B1B5CD2F80405AB
:10990000D840C04300F00100704700BFE4E8020007
:10991000044B195C4FF0A04201238B40C2F80C3578
:10992000704700BFE4E80200044B195C4FF0A0420E
:1099300001238B40C2F80835704700BFE4E80200FD
:109940004FF0A04310B44FF480204FF400344FF494
:1099500000214FF48012C3F80845C3F80805C3F886
:109960000815C3F808255DF8044B70474FF0A04375
:1099700010B44FF480204FF400344FF400214FF422
:109980008012C3F80C45C3F80C05C3F80C15C3F8D6
:109990000C255DF8044B7047074B4FF0A041185C55
:1099A000D1F804350122824022EA03001340C1F8B5
:1099B0000805C1F80C357047E4E802004FF0A042FA
:1099C000044B1B5CD2F81005D840C04300F00100E6
:1099D000704700BFE0E802000D2809D00E2809D02A
:1099E0000F2809D010280CBF03204FF0FF3070471C
:1099F000002070470120704702207047C20730B432
:109A00001AD54FF0A0430322C3F844274FF4003582
:109A1000C3F848274FF48024C3F84C274FF40021A3
:109A2000C3F850274FF48012C3F80855C3F808450F
:109A3000C3F80815C3F8082583070AD54FF0A043DB
:109A40000C22C3F83427C3F83827C3F83C27C3F8DF
:109A5000402730BC704700BF10B568B90E4CA368F2
:109A6000012262703BB1D3E900230020A260984735
:109A7000A368002BF7D110BD0128FCD1064C236947
:109A8000A070002BF7D0D3E9002301202261984772
:109A90002369002BF7D110BDC032002070B910B57A
:109AA000074CA368012262703BB1D3E90023002078
:109AB000A2609847A368002BF7D110BD704700BF84
:109AC000C032002030B5012883B004D0032821D053
:109AD000B0B103B030BD294C00230DF107008DF863
:109AE0000730FEF7A7FB23786BB3E3689DF8070008
:109AF00001330122E360A270FEF7C2FB03B030BD68
:109B00001F4B0122C3F88020BFF34F8FBFF36F8F2D
:109B100003B030BD194C00F045F800230DF10700EB
:109B20008DF80730FEF786FBE368013BE360E368EE
:109B30001BB9144BD3F80054C5B19DF80700FEF7CC
:109B40009FFB03B030BD10486360A3602361E360F6
:109B500000F01CF803F042FD60B10A4A01232370B3
:109B6000D2F80024002AC0D0A370BEE700F02CF881
:109B7000A570E2E700F016F8EFE700BFC032002062
:109B800000E100E000000140599A0200044A137904
:109B900023B90121106091801846704785207047D5
:109BA000D4320020074B1A68D20704D4C02283F8AD
:109BB000002301221A604FF080430122C3F81825C8
:109BC000704700BF00E100E010B40B4B0B494FF0B1
:109BD000804200200224C2F8084383B018601B684A
:109BE0000193012301980B60D2F81834DB03FBD4F6
:109BF00003B05DF8044B7047040100400C000040C6
:109C000010B5174B1A6882B062B10021154A19606D
:109C10001B68507900934FF080410123009CC1F8EC
:109C2000083398B1104B1A68BAB100221A601B6849
:109C300001934FF0804202210A4B0198C2F80813A9
:109C40001B68012002B0BDE810401847116853712D
:109C50008847054B1A68002AE7D102B010BD00BF43
:109C600000010040D432002004010040F0B5224C35
:109C700094F8583083B0002B3BD14FF0FF3121FADC
:109C800003F2D20748BFE21803F1010348BF82F88C
:109C90003010202BF3D14FF0FF334FF0FF364FF051
:109CA000FF370422002115482365C4E90233C4E9C3
:109CB0000433C4E90633C4E90833C4E90A33C4E908
:109CC000006703F027FF0E4BC02283F806234022D3
:109CD0001A600C4B0C4A002018601B680193019D10
:109CE00001214FF0004384F85810C2F8043303B048
:109CF000F0BD082003B0F0BDE03200203433002076
:109D000000E100E07C61004000600040034B93F8FC
:109D10005800003818BF0120704700BFE032002013
:109D2000F0B46F4B1D1895F93040002C61DA8C7837
:109D3000A707C4F3400C53D41C6A013400F0C88058
:109D40005C6A013400F0BD800C260A2453F82450CC
:109D5000013552D0651CB5423FD253F8257001370A
:109D600000F0A780A51CB54237D253F82570013703
:109D700000F09F80E71CB7422FD253F827500135DF
:109D80003AD0271DB74228D253F82750013533D097
:109D9000671DB74221D253F8275001352CD0A71D9B
:109DA000B7421AD253F82750013525D0E71DB742E4
:109DB00013D253F8275001351ED004F10807B742DB
:109DC0000BD253F82750013516D00934B44204D2CF
:109DD000DC6A013408BF0B240FD00420F0BC7047AC
:109DE0001C68013467D05C68013460D00826022406
:109DF000ACE70820F0BC70473C461E1865B243F83B
:109E0000242086F83050BCF1000F02D11C4484F8A5
:109E100048008A78540714D4D6073ED44C784FF0C3
:109E2000A04600F5E072A40046F822402D4EC4087A
:109E300000F0070C375D012202FA0CF23A4332556A
:109E40008A7812F002021CD0AB0003F1804303F5C4
:109E5000C0430978D3F8104524F4473424F44074FF
:109E6000C3F8104502020904D3F8100501F440318B
:109E700002F4F8520A430243C3F810250020F0BC54
:109E80007047083D2B44087893F8501041EA801140
:109E900083F850101046F0BC7047820002F1A042D7
:109EA000D2F8004724F00204C2F80047BEE70124BC
:109EB000A3E72C46A1E7002485F830401A60254628
:109EC000A7E7092685F830605A62344635469DE793
:109ED000082685F830601A623446354696E700BF9A
:109EE000E03200203433002070B42C4C251883B0AD
:109EF00095F93020072A1CDD224492F848309B094E
:109F0000032B40D0012B0CBF4FF400334FF44033F0
:109F1000800000F1A040D0F8002722F44032C0F8C1
:109F20000027D0F800271343C0F8003703B070BCF7
:109F30007047D3B2072BF9D8900000F1804000F5AC
:109F4000C04002F140039B00D0F810659BB203F1C2
:109F5000804303F5C04346F00106C0F810650020B9
:109F600018601B680193019B0029DFD095F9303000
:109F700054F82330002BD9D00949012303FA02F207
:109F8000C1F80423D2E74FF0A043D3F81035C34003
:109F900003F0010302331B04BAE700BFE0320020E4
:109FA000006000404FF0A043D3F8103523FA00F0D2
:109FB00000F00100704700BFF0B585B0C84A00232B
:109FC00001931168012900F0E7811E46C54B1A680C
:109FD000012A00F0D381C44B1A68012A00F0C08125
:109FE000C24B1A68012A00F0AD81C14B1A68012AE0
:109FF00000F09A81BF4B1A68012A00F08781BE4B9E
:10A000001A68012A00F05D81BC4B1A68012A07D04A
:10A01000BB4B1A68012A00F0CB81FEB905B0F0BD38
:10A02000B84AD2F804231206F2D500221A60196841
:10A030000291196E0298012903F1600346F080062F
:10A040000CD11A601B6803934FF0A043039AD3F816
:10A0500020250192C3F8202546F00046AA4F00248F
:10A060000125A30003F180432E4203F5C0434FEACC
:10A0700045050BD0D3F8100557F82420D3F8101558
:10A08000C0F30420C1F3014102B190470134082C10
:10A09000E7D1002EC2DA9C4C01254FF0A04694F97E
:10A0A0005000471C3DD0C0F3C20204AB1A4400F07C
:10A0B000070312F80C2C05FA03F31A42C1B200F0A0
:10A0C0003F002ED0830003F1A04305FA00FCD3F833
:10A0D0000027D3F8007727F44037C3F80077C2F39E
:10A0E0000142D3F80077022A0CBF4FF4403E4FF4F0
:10A0F000003E4EEA070E2718C3F800E7C6F820C551
:10A1000097F9303054F823305BB18909032900F006
:10A110007181022A00F06B81032A02D1022900F02A
:10A12000698194F95100411C3DD0C0F3C20204ABD7
:10A130001A4400F0070312F80C2C05FA03F31A4234
:10A14000C1B200F03F002ED0830003F1A04305FA16
:10A1500000FCD3F80027D3F8007727F44037C3F882
:10A160000077C2F30142D3F80077022A0CBF4FF404
:10A17000403E4FF4003E4EEA070E2718C3F800E7B2
:10A18000C6F820C597F9303054F823305BB18909FF
:10A19000032900F02581022A00F01F81032A02D141
:10A1A000022900F01D8194F95200421C3DD0C0F3F9
:10A1B000C20204AB1A4400F0070312F80C2C05FA93
:10A1C00003F31A42C1B200F03F002ED0830003F126
:10A1D000A04305FA00FCD3F80027D3F8007727F452
:10A1E0004037C3F80077C2F30142D3F80077022A60
:10A1F0000CBF4FF4403E4FF4003E4EEA070E2718C6
:10A20000C3F800E7C6F820C597F9303054F823307A
:10A210005BB18909032900F0DE80022A00F0D880B2
:10A22000032A02D1022900F0D68094F95300431C7E
:10A230003DD0C0F3C20204AB1A4400F0070312F889
:10A240000C2C05FA03F31A42C1B200F03F002ED0E5
:10A25000830003F1A04305FA00FCD3F80027D3F8EC
:10A26000007727F44037C3F80077C2F30142D3F8F0
:10A270000077022A0CBF4FF4403E4FF4003E4EEAF6
:10A28000070E2718C3F800E7C6F820C597F9303045
:10A2900054F823305BB18909032900F0A680022A13
:10A2A00000F0A080032A02D1022900F09E80D6F897
:10A2B00020350193C6F82035002B7FF4F0AE05B0B1
:10A2C000F0BD104AD2F8042351067FF59DAE00225E
:10A2D0001A601B680293029B46F0400694E600BF9A
:10A2E0000061004004610040086100400C610040D2
:10A2F0001061004014610040186100401C61004082
:10A300007C61004000600040E03200203A4AD2F810
:10A31000042390067FF573AE00221A601B68029337
:10A32000029B46F020066AE6334AD2F80423D4069C
:10A330007FF560AE00221A601B680293029B46F014
:10A34000100657E62C4AD2F8042315077FF54DAEC8
:10A3500000221A601B680293029B46F0080644E63E
:10A36000254AD2F8042357077FF53AAE00221A6037
:10A370001B680293029B46F0040631E61E4AD2F89F
:10A38000042392077FF527AE00221A601B68029310
:10A39000029B46F002061EE61749D1F8046316F048
:10A3A00001063FF413AE136013680293029B0DE69F
:10A3B00000221A601B6803934FF0A043039AD3F85E
:10A3C00020250192C3F82025002E3FF464AE43E619
:10A3D00001297FF42AAF984727E701297FF4E3AEEC
:10A3E0009847E0E601297FF462AF98475FE70129CB
:10A3F0007FF497AE984794E600600040014B1B68DD
:10A40000184700BF3C3300200A7B0346032A0BD8C1
:10A41000DFE802F01B21270C8A68520304D4496943
:10A42000D3F84C25914209D1012070478A68500326
:10A43000F2D5D3F84C2508699042EDD000200622D1
:10A44000C3F80005C3F8002570470969D3F84C2507
:10A450009142F3D1E8E70969D3F83C259142EDD167
:10A46000E2E7D3F84C2508699042E7D14969D3F86F
:10A470003C259142E2D1D7E7F0B56D4BD3F82421CA
:10A480008DB052B10022C3F82421D3F824210592C3
:10A49000059AD3F80421002A7AD0654DD5F8043105
:10A4A000002B37D00023634CC5F80431236AD5F85C
:10A4B000042104925E06049A04D494F82E20002A03
:10A4C00000F08F8013F004055BD15B4FDFF860C1B3
:10A4D0000FCF07AE0FC63B683360CCF86051DCF895
:10A4E00060310293029BCCF85C51DCF85C3194F84B
:10A4F00030200393039B002A6ED14D4B4F48504EA2
:10A500000021C3F80012A160C3F808630823C0F853
:10A51000803117E0474CC5F84831D5F84821237BF6
:10A520000192019A002B66D104F10C070FCF07AE00
:10A530000FC694F830203B683360002A41D0256A6A
:10A5400005F004053A49D1F8C434C1F8C434980779
:10A550000FD501238DF818300AB984F82F2015B1D2
:10A5600094F82E301BB1D4E9003106A898470DB0FD
:10A57000F0BD590708D4DB074FD503238DF81830F9
:10A58000EAE794F83020DDE702238DF81830E3E79E
:10A59000284C0222A168C3F80813A260A268C3F87D
:10A5A0000423D3F860211AB1D3F800329F0503D4F5
:10A5B0001F4B01221A625A61012384F82E300DB01C
:10A5C000F0BD1E4B1E48C5F800220821A260C5F848
:10A5D0000803C3F88011B2E794F82E30002BB1D0F5
:10A5E0008BE728462146FFF70FFF80F00100236A22
:10A5F00084F82E0066E7124B4FF4007140F20222FD
:10A60000C5F80012A260C5F80833A368C5F8043382
:10A610000123AB602B620DB0F0BD94F82E301BB15E
:10A6200004238DF8183097E78DF8183094E700BFB1
:10A6300000300040443300205033002000E100E0AF
:10A6400002029C012DE9F04788B006799DF8405040
:10A65000784F00684FF0000C3424654504FB067405
:10A6600002F0604514BF4FF02008E046B5F1005FEE
:10A6700084F82EC066D1704DC0F8085394F82FC0EE
:10A680000CF0FF05BCF1000F68D106EB460C06EBA1
:10A690008C0C4FEA8C0C0CF10C0907EB090E4FF0F7
:10A6A000010A84F82FA007F80950CEE90135CEE958
:10A6B00003258EF80110C0F88815C0F80451D0F8B1
:10A6C000041101910199C0F82451D0F8241102918C
:10A6D0000299C0F86051D0F8601103910399C0F855
:10A6E0004851D0F848110491049984F83050C0F8CA
:10A6F0005055C4F82080C0F84055C0F84425C0F833
:10A700004835B8F1000F21D14FF400720223C0F890
:10A710000022A3603423012403FB06F30462846057
:10A72000F9583B4409B39A6842F002029A609A6869
:10A7300042F400729A609B68C0F80433002008B0AD
:10A74000BDE8F087102008B0BDE8F0874FF48072B4
:10A750004FF48023C0F80022A360DBE7A368C0F8B1
:10A760000433112008B0BDE8F0870B46D0F848212B
:10A77000EAB1D0F804212AB1C0F80431D0F804219C
:10A780000592059AD0F8242102B30122C0F82431A1
:10A79000D0F8241107910799D0F86051D0F8001231
:10A7A00075B904624461D0F84821002AE1D1D0F89B
:10A7B0000421002AE0D1D0F824110029D6D0E5E701
:10A7C0008D0517D5C90519D4002ACFD0342303FB32
:10A7D0000676D0F8C434C0F8C434002286F82F209E
:10A7E0009BB907EB0C01FFF70FFE002814BF0020F8
:10A7F0000320A8E7CA0504624461B7D5C0F8483110
:10A80000D0F848210692069AB0E713F0010F18BF5E
:10A810004FF4024048F2012208BF032013F0020F58
:10A8200018BF104648F2022213F0040F18BF10465A
:10A8300089E700BF4433002002029C012DE9F04764
:10A8400090F804C0704F0468342606FB0CF6BD195E
:10A8500002F060404FF0000EB0F1005F88B085F864
:10A860002EE060D16948C4F8080395F82FE00EF097
:10A87000FF00BEF1000F40F0AB800CEB4C090CEB7D
:10A8800089094FEA890909F10C0A07EB0A0E4FF012
:10A89000010885F82F8007F80A80CEE90320CEE969
:10A8A00001308EF80110C4F88815C4F80401D4F8FA
:10A8B000041101910199C4F82401D4F824110291E2
:10A8C0000299C4F86001D4F8601103910399C4F8A7
:10A8D0004801D4F8481104914FF4805E0221DDF85C
:10A8E00010A085F83000C4F850052862C4F840056F
:10A8F000C4F83425C4F83835C4F800E2A960C4F8B7
:10A900002080C4F80080BA598AB1AB6843F00203D2
:10A91000AB60AB6843F40073AB60AB68C4F804335E
:10A9200008B0BDE8F087102008B0BDE8F0874346C6
:10A93000D4F84811E9B1D4F8041129B1C4F80421BC
:10A94000D4F8041105910599D4F8241101B301211B
:10A95000C4F82421D4F8240107900798D4F8605152
:10A96000D4F8000275B923626361D4F84811002954
:10A97000E1D1D4F804110029E0D1D4F82401002851
:10A98000D6D0E5E7860518D5C5051AD40029CFD05D
:10A99000342303FB0C7CD4F8C434C4F8C434002240
:10A9A0008CF82F20DBB907EB09012046FFF72CFDBF
:10A9B000002814BF00200320B2E7C10523626361B1
:10A9C000B6D5C4F84821D4F8481106910699AFE7E6
:10A9D000AB68C4F80433112008B0BDE8F08713F069
:10A9E000010F18BF4FF4024048F2012208BF0320B4
:10A9F00013F0020F18BF104648F2022213F0040FA2
:10AA000018BF10468CE700BF4433002002029C01AF
:10AA10000220FEF7C1BF00BF2DE9F0470D460646F4
:10AA2000FEF7DAFF032805D8012D04461AD0022DBF
:10AA300027D00DB1BDE8F0871B48FCF7DBFF1B4BAF
:10AA40001B4A04EB44010B44125D9D78AA42F1D1EC
:10AA5000002DEFD0174B1B68002BEBD02846BDE82C
:10AA6000F0471847114F00EB4003FA18FD5C53788C
:10AA70004FEA40085BB9A04447440D4BBA781A55D9
:10AA8000E6E70A4B00EB40041C446578E0E7DFF89A
:10AA9000289005484A464FF48041FCF765FF00289E
:10AAA000E9D189F80060E6E7A0330020E033002018
:10AAB000FC330020F43300207833002010B50078F8
:10AAC000FEF78AFF03280BD8064B00EB4000184422
:10AAD000407828B1044B1B6813B1BDE810401847FB
:10AAE00010BD00BFE0330020F433002038B5C04D66
:10AAF0002B7804466BB1BF4B1B7800202870002BCD
:10AB00004DD0FEF711FF0120FEF70EFF0320FEF7E8
:10AB10000BFF172C00F26A81DFE814F0F7006300E6
:10AB200063009F00B200C500D700970050004400AA
:10AB3000500044007A00180018001800180018008F
:10AB4000E500240181000C015C005C00AA48FCF7D0
:10AB500051FFD4F11104054600F03281002840F085
:10AB60002F81012C14D0C82303FB04F44FF47A7016
:10AB70004FF400430021C3FB04014FF4FA620023A9
:10AB800003F08CF92A4601469B48FCF7EDFE05468A
:10AB90000220FEF7BDFE974B01221A701FE0FEF760
:10ABA000CFFEB6E701202870FEF7F6FEBDE838407C
:10ABB000924800224FF40051FCF7D6BE01202870C5
:10ABC000FEF7EAFEBDE838408C48002240F266619C
:10ABD000FCF7CABEFEF7CAFE894B00251C7028464A
:10ABE00038BD0020FEF786FE002840F0CF80FEF73B
:10ABF0008FFE40F6CD4141F69A13022C18BF19463C
:10AC00007F4B7E481C70BDE838400022FCF7ACBE8C
:10AC1000FEF7ACFE7A4B0C221A700025DFE7754B6D
:10AC20001B78002B00F0DF800020FEF77DFE012066
:10AC3000FEF77AFE0320FEF777FE0120FEF768FE9E
:10AC40006F4B14221A700025C9E70020FEF760FE42
:10AC50006B4B07221A700025C1E70020FEF74AFE61
:10AC6000002840F0A780FEF753FE40F6CD41644B2C
:10AC7000624803241C70BDE838400022FCF774BE13
:10AC80000020FEF737FE002840F08E80FEF740FEE1
:10AC900041F69A115A4B594804241C70BDE83840BB
:10ACA0000022FCF761BE0020FEF724FE002877D1C9
:10ACB000FEF72EFE524B514805241C70BDE838406B
:10ACC000002240F6CD41FCF74FBE0020FEF764FEA7
:10ACD0004B4B4A4806241C70BDE83840002240F225
:10ACE0006661FCF741BE434B1B78002B78D00020F7
:10ACF000FEF71AFE0120FEF717FE0320FEF714FEF2
:10AD00003F4B12221A70002569E73A4B1B78002B43
:10AD100060D00020FEF708FE0120FEF705FE0320AC
:10AD2000FEF702FE3548FCF765FE354B002205466E
:10AD30001A7054E72F4B1B78002B48D00020FEF7E9
:10AD4000F3FD0120FEF7F0FD0320FEF7EDFD0020EE
:10AD5000FEF7DEFD0120FEF7DBFD294B15221A7000
:10AD600000253CE7234B1B78BBB30020FEF7DCFD3E
:10AD70000120FEF7D9FD0320FEF7D6FD0020FEF7E7
:10AD8000C7FD1F4B13221A70002528E70020FEF78D
:10AD9000CBFD022C47F2333118BF4FF480312FE73F
:10ADA0000020FEF7C1FD85E70020FEF7BDFD4FF452
:10ADB00080316FE70020FEF7B7FD43F2333156E7ED
:10ADC0000220FEF7B1FD0B4B00221A7007E7FEF7D9
:10ADD000B7FDBCE7FEF7B4FDA4E7FEF7B1FDCDE794
:10ADE000FEF7AEFD8CE7FEF7ABFD26E70025F6E6A5
:10ADF000F03300207933002080330020C03300205E
:10AE0000F8330020044B1B68DB0700D47047034B6A
:10AE10001878FFF76BBE00BFEC330020F83300203A
:10AE2000032801D900207047FEF7C8BD044B1B68FA
:10AE300013F0010301D118467047FFF757BE00BF5A
:10AE4000EC33002038B5244B244A196081070446AE
:10AE5000106004D410F001052CD1284638BD204BD9
:10AE600020480E250F2210211D701125DA709971CE
:10AE70005D7240F233320421FCF7DCFA054630B152
:10AE8000E207EAD50120FEF7B9FD284638BDFCF7F8
:10AE900031FB05460028F3D10146134A1348FCF75D
:10AEA00055FDE3070546D8D50120FEF7A7FD002D87
:10AEB000D3D102E00120FEF7A1FD0D4A0D4800218B
:10AEC000FCF744FD05460028C7D1BDE838400A4AD2
:10AED0000A480121FCF73ABDF4330020EC3300208E
:10AEE000E03300201CE90200BDAA020040E9020094
:10AEF00005AE020044E9020011AA02003CE902008A
:10AF0000032806D8012A06D001291BD0022908D01F
:10AF100071B107207047012911D002294FF00002BA
:10AF2000F6D10B4B00EB4000034400205A707047F1
:10AF3000074B00EB4000034408469A70704700F14D
:10AF40000E02D2B200EB400301490020CA54704700
:10AF5000E033002010B50388102B07D0112B04D14B
:10AF6000254B18680138186030B110BD224C21689B
:10AF700011B30131216010BD01220221FFF7C0FF92
:10AF800040B1072806D01D4B1B68002BEDD0BDE853
:10AF900010401847072202210120FFF7B1FF08B136
:10AFA0000728F0D1002108460A22FFF7A9FF002850
:10AFB000DBD00728E7D1D8E701220846FFF7A0FF3A
:10AFC00038B1072805D00D4B1B6803B1984721689D
:10AFD000CFE7072202210120FFF792FF08B10728DF
:10AFE000F1D1042202210020FFF78AFF0028EED0D1
:10AFF0000728E8D1EBE700BF04340020003400202C
:10B00000184B10B5186031B101200C46FFF708FF4E
:10B01000F8B102232370144B186808B1002010BD4A
:10B0200001220221FFF76CFF08B10728F7D10722A0
:10B0300002210120FFF764FF08B10728EFD10021AA
:10B0400008460A22FFF75CFF0028E7D00728E5D072
:10B0500010BDFFF7E5FE10B10B232370DBE7207076
:10B06000D9E700BF003400200434002074DF7047AB
:10B0700076DF70477ADF70477CDF70477FDF70478D
:10B080008FDF7047B1DF7047FCF74ABA30B5174C15
:10B09000174885B00021009143252170012303AAA0
:10B0A00068218DF80C50FFF7CDFAA8B92378002B52
:10B0B000FCD0002121700F4A0D4806236821FFF7BC
:10B0C000BDFB80B92378002BFCD00A490A4800F068
:10B0D00045FF20B905B030BDFCF722FAE6E7FCF7E2
:10B0E0001FFA05B030BDFCF71BFAEBE7D43800209F
:10B0F00054EA02005C3C00205C38002030B5174C5C
:10B10000174885B0002100913B252170012303AA37
:10B1100068218DF80C50FFF795FAA8B92378002B19
:10B12000FCD0002121700F4A0D4806236821FFF74B
:10B1300085FB80B92378002BFCD00A490A4800F02F
:10B14000A1FE20B905B030BDFCF7EAF9E6E7FCF74F
:10B15000E7F905B030BDFCF7E3F9EBE7D4380020A0
:10B1600054EA0200643C00205C38002010B50388DB
:10B17000212B82B004462BD80F2B27D9103B112B43
:10B1800024D8DFE803F00941235423232323232376
:10B190002323232323232337324B33483349C01A35
:10B1A000C008000440F00300FBF7F6FA0720FFF7A1
:10B1B0003DFE00284FD12E4BA1882E48198002F069
:10B1C000F9F800284AD12C4B01221A7002B010BDA8
:10B1D000522B36D0562B09D1A0881321FFF748FFF8
:10B1E0000028F3D0FCF79CF902B010BD3B2BF3D044
:10B1F00002B010BD00238088ADF8043001A9FFF72C
:10B200003FFF0028E2D0EDE7164B17481B49C01A54
:10B21000C008000440F00300FBF7BEFA1649144BC7
:10B2200000204FF6FF7208701A8002B010BD104A5D
:10B230000023108885211A46FFF720FF0028C5D07B
:10B24000D0E70B4A0023108819461A46FFF71AFF69
:10B250000028BBD0C6E7FCF763F9ACE7FCF760F960
:10B26000B1E700BF74F10200BCF1020058E902002E
:10B27000F42A0020C8380020EC2A002048E9020007
:10B2800008B5037803B108BD054B3B211888FFF7CB
:10B29000EFFE0028F7D0BDE80840FCF741B900BF39
:10B2A000F42A00200C4B4A881B889A4200D0704731
:10B2B0000A8840F677239A42F9D1084A08488B88D1
:10B2C0000849801A033BC0089BB2000440F0030009
:10B2D0001A46FBF7F3BB00BFF42A002074F102000A
:10B2E000BCF1020064E902002DE9F0410578002D6F
:10B2F0004FD1454E454B726803FB02F3B3F1333F28
:10B3000004460FD8424A434BC2F81051012119603C
:10B31000D2F81031002BFBD03D4AD2F80034012B7B
:10B32000FBD072683C4B3D4D3D49ED1AED082D04B4
:10B3300045F003052846531C7360FBF7F1FA60687B
:10B340000221FCF767FE002838D16368354F717819
:10B350005888B3F90020388099BBB3785BBBDFF81D
:10B36000D88098F80020022A06D0002A3ED0012A70
:10B3700008BF042388F80030FCF78CFC2A4B2449D2
:10B3800002208022C1F80803C3F880212578002319
:10B390003370012D01D0BDE8F0811F4B1F482349B8
:10B3A000C01AC008000440F00300FBF7F5F9164B83
:10B3B0005D70BDE8F081013BB370DDE7FCF7B0F8EC
:10B3C000C3E71B49DFF870802846FBF7A9FAB7F9F5
:10B3D000002017492846FBF7A3FA98F80030022B03
:10B3E00006D0002214237270B370C5E70323C1E7AF
:10B3F0001048032101F0DAFB18B9002388F8003067
:10B40000EFE7FCF78DF8F8E7F82A0020CDCCCCCC9C
:10B41000007000400C70004074F10200BCF10200AA
:10B4200080E90200D638002000E100E0A4E9020033
:10B4300098E9020028340020EC2A0020042808B5EE
:10B4400008D0072805D10D4B1A884FF6FF739A4292
:10B450000CD008BD094B13211888FFF709FE30F006
:10B460000803F6D0BDE80840FCF75AB8044801F0DC
:10B47000E9FB30F00803F5D108BD00BFF42A002035
:10B480002834002008B580B103280DD10F4B104897
:10B490001049C01AC008000440F00300FBF77CF913
:10B4A0000220FFF7C3FC50B908BD0B4B93F85400C2
:10B4B000FFF7DCFD38B9094B02221A7008BDBDE860
:10B4C0000840FCF72DB8FCF72BF8F4E774F1020004
:10B4D000BCF10200B0E9020028340020EC2A002070
:10B4E00008B50B78032B07D8DFE803F01913070220
:10B4F0000F48FCF77FFA40B908BD0D4800224FF411
:10B500008041FCF731FA0028F6D0BDE80840FCF78E
:10B5100007B80848FCF76EFA0028F6D108BD0548C0
:10B5200000224FF48041FCF71FFA0028EDD108BD3E
:10B53000A838002008340020FBF7F2BF30B585B0F2
:10B54000244B254900936846FCF750FB88BB002438
:10B5500001216FF4006C204602238DF80B104FF48C
:10B5600080356144FA228DF80C400195ADF8083021
:10B57000FCF7CAFD204601A9FCF7E0FC30BB1749E7
:10B580000223012040F2A9128DF80B30FCF7BCFD1C
:10B5900001A90120FCF7D2FCA8B911480221FCF74F
:10B5A00039FD68B90F480221FCF734FD20B905B018
:10B5B00030BDFBF7B5FFCAE7FBF7B2FF05B030BD02
:10B5C000FBF7AEFFEEE7FBF7ABFFE6E7FBF7A8FF05
:10B5D000D5E700BF02000601E9B2020000F8FFFF54
:10B5E000883800208C38002090B938B50D4D2B7864
:10B5F000ABB101242C70FCF76FFD0B4823462022D1
:10B600000021FCF7A9FE20B9084B01221A6038BDC1
:10B610007047FBF785FF054B01221A6038BDFFF725
:10B620008DFFE6E7F82A002060EA020008400240A9
:10B630002DE9F0474FF080430122AEB0C3F87825E2
:10B640004FF480410020FAF731FF002840F03B81A1
:10B65000FAF71CFFFCF744F9002840F06D81B84A66
:10B66000B8480121FCF772F9002840F06281B64A1F
:10B67000B6480121FCF76AF9002840F05781B44927
:10B680000320FFF7DFFB002840F04D8102A90020D6
:10B69000FFF7B6FC002840F04381FDF76BFE002861
:10B6A00040F03B8101F00EFF002840F03381002381
:10B6B00002A90120029301F0E5FF002840F0278154
:10B6C00002A802F0BDF8002840F01E811123A14815
:10B6D0008DF8043002F0D4FA9E4982B201A8FFF737
:10B6E000CBFC002840F00D81082200210DEB020068
:10B6F00002F010FA984B029302A84FF0C87303931C
:10B70000FFF7B8FC002840F0F9809449944801F014
:10B7100033FD002840F0EF809148F72101F044FD0F
:10B72000002840F0E5808F4B8F48019301A901F07C
:10B730002FFE002840F0D980082200210DEB0200E6
:10B7400002F0E8F9894B0293112241F21113884863
:10B750008DF80D2002A9ADF80E3000F03DF900285B
:10B7600040F0C080834B844D8449ED1AED082D04D0
:10B7700045F003052846FBF70FF8AC22002102A88C
:10B7800002F0C8F97E480790022240F201610123CD
:10B790008DF80820ADF80A107A4A7B48ADF81830C9
:10B7A0004FF4967644F2506702A9CDE924678DF8EC
:10B7B00084302B9201F074F9002840F09080724898
:10B7C000012101F069F971492846FAF7E5FF1C22C9
:10B7D000002102A802F09EF900234FF4F0206C4AE9
:10B7E0000293ADF816308DF818306A4B04904FF480
:10B7F000A034032102A8CDE9072303948DF8141087
:10B8000001F07EFB002867D163492846FAF7C4FFA0
:10B8100062492846FAF7C0FF40F2FF33604A6148A8
:10B82000ADF8083002A9FCF743FD002851D15D486E
:10B83000012320220021FCF78FFD002846D1594822
:10B84000594CDFF878A1DFF84081584F584EDFF8A7
:10B850007091FCF775FD57492846FAF79DFF564948
:10B860002846FAF799FF14E0042B1DD028463946E4
:10B87000FAF792FF98F85400FFF7F8FB00BB022399
:10B88000314628462370FAF787FFFAF75DFE002855
:10B89000FBD12378DA1E012AE6D9FAF755FE0028F3
:10B8A000F3D1FDF77DFDF0E749462846FAF774FF2E
:10B8B000BAF800001321FFF7DBFB30F00803DED0FD
:10B8C000FBF72EFEDBE7FBF72BFEC1E6FBF728FEBE
:10B8D000B5E7FBF725FEAAE7FBF722FE94E7FBF7A7
:10B8E0001FFE6CE7FBF71CFE3CE7FBF719FE23E7A6
:10B8F000FBF716FE17E7FBF713FE0DE7FBF710FE4D
:10B9000003E7FBF70DFEEFE6FBF70AFEDEE6FBF7CB
:10B9100007FED5E6FBF704FEC9E6FBF701FEC1E62C
:10B92000FBF7FEFDB9E6FBF7FBFDAFE6FBF7F8FD25
:10B93000A5E6FBF7F5FD9AE6FBF7F2FD8FE600BF03
:10B94000FDB0020048EA02008DB002004CEA02009D
:10B950003DB40200C4E902005000A000A5B20200FC
:10B960009038002089B00200C8380020E1B40200FD
:10B970005C38002074F10200BCF10200D0E9020042
:10B98000F02A002085B4020028340020DCE90200FF
:10B9900081B2020039B50200E0E90200ECE90200E0
:10B9A000E9B5020060EA0200EC2A00203CEA02004D
:10B9B00030EA020008EA02000CEA0200F42A002041
:10B9C00020EA0200A8DF7047AADF7047ACDF7047AB
:10B9D000AEDF704762DF70472DE9F04F97B0002867
:10B9E00000F008820E46002900F00482DFF8508043
:10B9F0000B68104F104C0360054698E80F00E41BDD
:10BA0000E408240444F0030906AF4FF6FF7487E806
:10BA10000F00EC8409494846FAF7BEFE384605F1A6
:10BA20002801FFF7D7FF044660B1204617B0BDE8F4
:10BA3000F08F00BF74F10200BCF1020068EA02005E
:10BA400084EB0200DE494846FAF7A6FE4FF0010AF1
:10BA500095F82830DB498DF80A304846ADF808A043
:10BA6000FAF79AFE50462A1D02A9FFF7ABFF0446DB
:10BA70000028DAD14846D249D34FFAF78DFE214645
:10BA8000032201A802F046F89DF8063072798DF87D
:10BA9000052021461C226AF342030FA84FF011092A
:10BAA0008DF806308DF8049002F034F89DF83C30A3
:10BAB000109723F01A0343F0120338468DF83C30F8
:10BAC00002F0DEF803463846ADF8463002F0D8F80A
:10BAD00001AF03462146032203A8CDE9124414977F
